:100BDE0041542B43574D4F44453D320D0A0041546D
:100BEE002B4349504D55583D310D0A0041542B436E
:100BFE0049505345525645523D312C383838380DF0
:100C0E000A00C0F9A4B0999282F880908CBFC6A158
:100C1E0086FFBFC0F9A4B0999282F880908CBFC6AF
:040C2E00A186FFBFDD
:10094D004200480000420050000042003B000042BF
:10095D000045000042003600004200410000440006
:10096D004C0000000044005400000000C100C10113
:10097D0042003D0000C10260320001000000000095
:10098D00000000000000000000000000000000005A
:10099D00000000000000000000000000000000004A
:1009AD0000000000000000000000000000420038C0
:1009BD00000042005B000042004A000042003F0080
:0109CD000029
:0F0F9A00EFC4540F75F00AA4FEEF540F2EFF2280
:100EE400EF75F06484E5F075F00A84C454F0FEEF05
:090EF40075F00A84E5F04EFF22BE
:07000300D2A012000AD2A1F5
:01000A0022D3
:0D000E00120003C2A012000AC2A102000AE3
:0A0FCE00C2A0120005D2A002000A22
:100CBD00E4FEEFA806088002C333D8FC30E704D267
:100CCD00A08002C2A0120005C2A10EEEB408E3126C
:100CDD00000A12000330A004C2038002D203C2A195
:030CED0002000AF8
:100E3200E4FFD2A0FE12000AC2A1120005EF25E0D3
:100E4200FF30A0010F12000A0EEEB408E8C2A11290
:020E5200000A94
:010E5400227B
:100F5800200404C2A08002D2A0120005C2A102008F
:010F68000A7E
:100D8200AC0712000E7FD0120CBD2003037F00229D
:100D9200AF04120CBD2003037F0022AF05120CBD6D
:0F0DA2002003037F0022120FCE12000A7F0122CE
:100EB00012000E7FD1120CBD2003037F0022120E00
:090EC00032D204120F58120FCEB9
:010EC9002206
:100E5500AD0712000E7FD0120CBD2003037F0022C8
:0F0E6500AF05120CBD2003037F0022120EB02236
:0E0FA900AC07AF05120EE4AD07AF04020D82D7
:100AC400E4FF120E55120F9AEF1202317F01120E3B
:100AD40055120F9A900001EF1202437F02120E5535
:100AE400120F9A900002EF1202437F04120E551265
:100AF4000F9A900004EF1202437F03120E55120F57
:100B04009A900003EF1202437F05120E55120F9ABA
:100B1400900005EF1202437F06120E55120F9A90B1
:060B24000006EF0202438F
:100A4E0090000212020475F00A8490001012024304
:100A5E0090000212020475F00A84900011E5F01263
:100A6E000243900012743A120243900001120204E3
:100A7E0075F00A84900013120243900001120204D2
:100A8E0075F00A84900014E5F0120243900015747C
:100A9E003A1202431201EBFF75F00A84900016120F
:100AAE000243EF75F00A84900017E5F012024390AE
:060ABE000018E4020243EF
:05001E00D2A0D2A122D6
:100C8200E490003DF0A3F0759850758920758BFDB6
:0D0C9200758DFDC2ABD28ED2AF7F407E1FAC
:100C9F00D3EF9400EE940040147D707C00ED1D7036
:0D0CAF00011CED4C70F7EF1F70E61E80E396
:010CBC002215
:1008CB0090007BEFF0A3EDF0A3EBF0900080E0FF46
:1008DB00120D0B7F01120D0BC291D29190007FE094
:1008EB00FF120D0B7F02120D0B120CF07F04120D79
:1008FB000BC291D29190007EE0FF120D0B7F08127C
:10090B000D0BC291D29190007DE0FF120D0B7F1069
:10091B00120D0B120CF07F20120D0BC291D2919085
:10092B00007CE0FF120D0B7F40120D0BC291D29198
:10093B0090007BE0FF120D0B7F80120D0BC291D24A
:02094B009122F7
:100CF000C291D2917E0C7F20900034EEF0A3EFF0F1
:0B0D0000F5828E83E493FF90005AF010
:100D0B007E08EF30E704D2908002C290EF25E0FF1F
:060D1B00C292D292DEEC50
:010D210022AF
:070FE100C2A5C2A4C2A222B6
:100F7A00EF24FF92A5ED24FF92A4EB24FF92A22274
:100E7400A907AA05120FE17F327E00120C9FAF0171
:0E0E8400AE02AD06120F7A7F327E00020C9F86
:070FE800C295C296C29722D8
:100F8A00EF24FF9295ED24FF9296EB24FF9297228D
:100E9200A907AA05120FE87F327E00120C9FAF014C
:0E0EA200AE02AD06120F8A7F327E00020C9F58
:0C0FB700C2AF53E71843E70143E7802274
:090FD80053E77FE4F5E6D2AF22F5
:0B0FC300120FB775E64675E6B9002274
:100EFD00AD07AC06ECF5E3EDF5E453E5F843E5019C
:090F0D00120FC3120FD8AFE2224B
:100F2E00EE54FEFE7F00F5E3E4F5E453E5F843E509
:070F3E0003120FC3020FD8DC
:100ECA00AB07AA06EAF5E3EBF5E453E5F843E502D6
:0A0EDA00AF058FE2120FC3020FD81C
:100DB100E47F64FEFDFC90004CE0F8A3E0F9A3E0C1
:100DC100FAA3E0FBD3120273400ED294120FE1900A
:0D0DD1000048E4F0A304F022D294C2942262
:100DDE00E47F64FEFDFC900054E0F8A3E0F9A3E08C
:100DEE00FAA3E0FBD3120273400ED294120FE890D6
:0D0DFE000050E4F0A304F022D294C294222D
:100B2A00AF8CEFFEAD8A7C00E42DFFEC3E90003BDB
:100B3A00F0A3EFF0E4F58CF58A90003BE0FCA3E02B
:100B4A00FDE41201317B7B7A14792E783E1200265D
:100B5A0012016A90004C120284E47FA07E0FFDFC11
:100B6A0090004CE0F8A3E0F9A3E0FAA3E0FBC3127B
:0A0B7A0002735003300002C2002293
:100B8400AF8CEFFEAD8A7C00E42DFFEC3E90004577
:100B9400F0A3EFF0E4F58CF58A900045E0FCA3E0C7
:100BA400FDE41201317B7B7A14792E783E12002603
:100BB40012016A900054120284E47FA07E0FFDFCAF
:100BC400900054E0F8A3E0F9A3E0FAA3E0FBC31219
:0A0BD40002735003300102C2012237
:03000B00020FEFF2
:050FEF00D200D2013226
:03001B000206FEDC
:1006FE00C0E0C0F0C083C082C0D075D000C000C0C2
:10070E0001C002C003C004C005C006C007758DF845
:10071E00758B3090003DE07004A3E06401703012E0
:10072E000DB1900037E004F07006900036E004F052
:10073E00C3900037E09464900036E09400404AE4A1
:10074E00F0A3F0D2807F32FE120C9FC280803A90CE
:10075E00003DE07004A3E06402702E120DDE9000E6
:10076E0042E004F07006900041E004F0C3900042B5
:10077E00E09464900041E09400400EE4F0A3F0D2C7
:10078E00B57F32FE120C9FC2B5D007D006D005D071
:10079E0004D003D002D001D000D0D0D082D083D0EC
:0407AE00F0D0E03275
:100D2200758911E4F58CF58A758DF8758B30D2A929
:100D3200D2ABD28ED2AF900048E07002A3E0700F27
:100D42003081FDD28C2081FDC28C120B2A80E722D9
:100D5200758911E4F58CF58A758DF8758B30D2A9F9
:100D6200D2ABD28ED2AF900050E07002A3E0700FEF
:100D720030B4FDD28C20B4FDC28C120B8480E722E9
:090F6900F582E43400F583E0FF99
:080F72008F993099FDC299220C
:100F45001201EBFF600C120F72740129F9E43AFAF1
:030F550080EE2209
:10064800759850758920758BFD758DFDC2ABD28E5E
:10065800D2AFE4900052F0A3F0900053E004F070A1
:1006680006900052E004F0900052E0B427EBA3E0BB
:10067800B410E67BFF7A0B79DE120F45E490005246
:10068800F0A3F0900053E004F07006900052E004EC
:10069800F0900052E0B427EBA3E0B410E67BFF7AB9
:1006A8000B79EC120F45E4900052F0A3F090005340
:1006B800E004F07006900052E004F0900052E0B4BC
:1006C80027EBA3E0B410E67BFF7A0B79FA120F450B
:1006D800E4900052F0A3F0900053E004F07006900C
:1006E8000052E004F0900052E0B427EBA3E0B4100D
:0606F800E6C298D2AC221C
:1002C10020020302053BE490005EF0A3F090005E83
:1002D100E0FEA3E0FFC39432EE9400503774012F87
:1002E100120F69E4900052F0A3F0900053E004F083
:1002F1007006900052E004F0900052E0B403EBA3CA
:10030100E0B4E8E690005FE004F070C190005EE0C8
:1003110004F080B97F0A120F7290003FA3E024011C
:10032100F582E43400F583E0FF6440606FEFB420B0
:100331000E90004BE004F0700690004AE004F0904B
:10034100004AE0FEA3E0FF64044E700F90003FE01E
:10035100FDA3E0900058CDF0A3EDF0EF640A4E70DC
:100361002A90003FE0FEA3E0FF900060EEF0A3EFD3
:10037100F02401F582E43400F5837440F0900040EC
:10038100E024FFF090003FE034FFF0900040E004F3
:10039100F0708690003FE004F002031A900058A329
:1003A100E02401F582E43400F583E0643170799052
:1003B1000060A3E0FDFF2402F582E43400F583E050
:1003C10024D075F00AA4FE74032FF582E43400F5FD
:1003D10083E024D02E900044F0AF0574052FF58200
:1003E100E43400F583E024D075F00AA4FE74062FEE
:1003F100F582E43400F583E024D02E900033F090B0
:100401000060A3E0FF2408F582E43400F583E024D2
:10041100D075F00AA4FE74092FF582E43400F58347
:10042100E024D02E900000F0900058A3E0240112A7
:100431000F69900058A3E02401F582E43400F583AC
:10044100E064327079900060A3E0FDFF2402F58240
:10045100E43400F583E024D075F00AA4FE74032F80
:10046100F582E43400F583E024D02E90005DF0AFF6
:100471000574052FF582E43400F583E024D075F08E
:100481000AA4FE74062FF582E43400F583E024D03B
:100491002E900047F0900060A3E0FF2408F582E46D
:1004A1003400F583E024D075F00AA4FE74092FF519
:1004B10082E43400F583E024D02E90003AF0E490F9
:1004C100004AF0A3F0900060F0A3F0900058F0A370
:1004D100F090003FF0A3F0FF7E20120F2E90004419
:1004E100E0FD7F007E20120ECA900033E0FD7F10F8
:1004F100120ECA900000E0FD7420FF120ECAC20263
:10050100E4900038F0A3F090005BF0A3F090005B62
:10051100E0FEA3E0FFC39432EE9400501D74012F5E
:10052100F582E43400F583742AF090005CE004F075
:0B05310070DB90005BE004F080D32240
:100C3200120648120E0BE4900038F0A3F0C20290A4
:100C4200005BF0A3F090005BE0FEA3E0FFC39432F0
:100C5200EE9400501D74012FF582E43400F5837484
:100C62002AF090005CE004F070DB90005BE004F09E
:100C720080D3120FE1120FE81202C11207B280F8FC
:030023000209CF00
:1009CF00C0E0C083C082C0D075D000C005C006C0D3
:1009DF000730985CC2ACC298900043E599F0900044
:1009EF0038E0FEA3E0FFC39432EE94005040900035
:1009FF0043E0FD74012FF582E43400F583EDF090B0
:100A0F000039E004F07006900038E004F090000127
:100A1F00E0B42B11EDB44016D202900038E4F0A3ED
:100A2F007432F08009C202900038E4F0A3F0D2AC27
:0F0A3F00D007D006D005D0D0D082D083D0E032FF
:020F1600AB0727
:100F1800E4FAEAC39B500EC2A37F147E00120C9F12
:050F2800D2A30A80EDD8
:010F2D0022A1
:02053C00AA050E
:10053E00AD077F09120D82AF02AD077F08120D8243
:10054E00AF03AD077F07120D827F09120E55900083
:10055E0081EFF07F08120E55A3EFF07F07120E55B4
:10056E00A3EFF090007EE0FD7F0C120D82A3E0FD64
:10057E007F0B120D82A3E0FD7F0D120D827F0C12F8
:10058E000E55900084EFF07F0B120E55A3EFF07F07
:10059E000D120E55A3EFF0900064E0FF900081E085
:1005AE006F7044900063E0FF900082E06F703890AF
:1005BE000062E0FF900083E06F702C7F08120F1630
:1005CE0090003DE4F0A304F0FBE4FD7F01120E74F5
:1005DE00E4900048F0A3F0120D2290004C1202900D
:1005EE0000000000120C82900064E0FF900084E096
:1005FE006F7046900063E0FF900085E06F703A9058
:10060E000062E0FF900086E06F702E7F08120F16DA
:10061E0090003DE4F0A37402F07B01E4FD7F011233
:10062E000E92E4900050F0A3F0120D52900054126E
:09063E00029000000000120C8281
:010647002290
:100E0B0012001E120FE1E4FF120E55120F9AEF7033
:100E1B00157D0B7F02120FA97D0C7F01120FA97D8F
:070E2B0029E4FF120FA922C8
:1007B2007B017A007962120AC4120A4E900072E03A
:1007C200FFA3E0FE900075E0FBA3E0F9900078E063
:1007D200FAA3E0FCEF900C2193FFEE93FDEB93FB69
:1007E200E99390007EF0EA900C219390007FF0EC68
:1007F200900C2193900080F01208CB7F007E201293
:100802000EFD900044EFF07F10120EFD900033EFCA
:10081200F07420FF120EFD900000EFF0900044E013
:10082200FF900033E0FD90005DE090007EF09000CC
:0D08320047E090007FF0E4A3F0FB02053CDE
:10002600EC4D6011E8497017ED33EC3304600DE4D4
:10003600FCFFFEFD22E933E8330470F80201D61214
:1000460001A158046009E4CC248150062850090215
:1000560001E02840030201DDC0E0EB4A7044B980AC
:1000660006D0E0FB0201CCEF4E701CBD8008EBFF12
:10007600EAFEE9FD80EBE98DF0A4FEE5F002010F52
:10008600E9CDF9EAFEEBFFEF89F0A4FCE5F0CE89B5
:10009600F0A42EFFE435F0CD89F0A42DFEE435F072
:1000A6008067EF4E7005BD80D780C3EF8BF0A4ACA0
:1000B600F0EE8BF0A42CFCE435F0F8EF8AF0A42CDB
:1000C600E5F038FCE433CB8DF0A42CFCE5F03BF8EE
:1000D600EE8AF0A42CFCE5F038F8E433CF89F0A4DE
:1000E6002CFCE5F038CF3400CE89F0A42FFFE5F0E4
:1000F6003EFEE433C98DF0A42EFEE5F039CD8AF03C
:10010600A42FFFE5F03EFEE43DFD33D0E0FB5007B3
:100116000BBB000F0201E0EC2CFCEF33FFEE33FECD
:06012600ED33FD0201B8FB
:10012C0075F020800E75F010800575F0087D007E4E
:10013C00007F003392D530D503120265EC334010AA
:10014C00EF33FFEE33FEED33FDEC33FCD5F0ED2257
:0E015C00E5F0247EA2D513CC92E7CDCEFF2293
:10016A00EDD2E7CD33EC3392D524814006E4FFFE8D
:10017A00FDFC22FCE4CFCECDCC24E0501174FF80EC
:10018A00EDC3CC13CCCD13CDCE13CECF13CF047089
:07019A00F030D5DE02026522
:1001A100E9D2E7C933E833F892D5EDD2E7CD33ECA4
:0701B10033FC5002B2D5221D
:1001B800EC30E7100FBF000C0EBE00080DBD0004A8
:1001C8000BEB6014A2D5EB13FCED92E7FD2274FF54
:1001D800FCFDFEFF22E480F8A2D574FF13FC7D80AD
:0301E800E480EFC1
:0300000002083FB4
:0C083F00787FE4F6D8FD75812002088661
:1001EB00BB010689828A83E0225002E722BBFE0212
:0901FB00E32289828A83E4932245
:10020400BB010CE58229F582E5833AF583E02250AF
:1002140006E92582F8E622BBFE06E92582F8E222F9
:0D022400E58229F582E5833AF583E4932213
:10023100BB010689828A83F0225002F722BBFE01AC
:02024100F322A6
:10024300F8BB010DE58229F582E5833AF583E8F0F1
:10025300225006E92582C8F622BBFE05E92582C89D
:02026300F22285
:0E026500C3E49FFFE49EFEE49DFDE49CFC22AA
:10027300EB9FF5F0EA9E42F0E99D42F0E89C45F0E1
:010283002258
:0C028400ECF0A3EDF0A3EEF0A3EFF022ED
:10029000A8828583F0D083D0821202A71202A7120F
:1002A00002A71202A7E473E493A3C583C5F0C58334
:1002B000C8C582C8F0A3C583C5F0C583C8C582C8B8
:0102C000221B
:10084B00020C32E493A3F8E493A34003F68001F285
:10085B0008DFF48029E493A3F85407240CC8C333AE
:10086B00C4540F4420C8834004F456800146F6DF7D
:10087B00E4800B010204081020408090094DE47EB7
:10088B00019360BCA3FF543F30E509541FFEE49372
:10089B00A360010ECF54C025E060A840B8E493A339
:1008AB00FAE493A3F8E493A3C8C582C8CAC583CA64
:1008BB00F0A3C8C582C8CAC583CADFE9DEE780BE1C
:0109CE000028
:00000001FF
